:020000040800F2
:10000000800A0020450100080D03000809030008CC
:100010000B030008CD010008CD0600080000000019
:10002000000000000000000000000000670500085C
:10003000CF010008000000000F0300085906000867
:100040005F0100085F0100085F0100085F01000810
:100050005F0100085F0100085F0100085F01000800
:100060005F0100085F0100085F0100085F010008F0
:100070005F0100085F0100085F0100085F010008E0
:100080005F0100085F0100085F0100085F010008D0
:100090005F0100085F0100085F0100085F010008C0
:1000A0005F0100085F0100085F0100085F010008B0
:1000B0005F0100085F0100085F0100085F010008A0
:1000C0005F0100085F0100085F0100085F01000890
:1000D0005F0100085F0100085F0100085F01000880
:1000E0005F0100085F0100085F0100085F01000870
:1000F0005F0100085F0100085F0100085F01000860
:100100005F0100085F0100085F0100085F0100084F
:100110005F0100085F0100085F0100085F0100083F
:100120005F0100085F0100085F0100085F0100082F
:10013000DFF80CD000F038F800480047610E0008E6
:10014000800A00200648804706480047FEE7FEE791
:10015000FEE7FEE7FEE7FEE7FEE7FEE7FEE7FEE777
:100160007D060008310100080146002000E0401C27
:100170000A5C002AFBD17047034611F8012B00F8F6
:10018000012B002AF9D11846704730B505460020EA
:10019000034600E05B1C934205D2EC5CC85C201A6D
:1001A00001D1002CF6D130BD064C074D06E0E068C9
:1001B00040F0010394E8070098471034AC42F6D3AE
:1001C000FFF7BAFFDC170008FC170008FEE77047CE
:1001D000F8B50121042000F09BF80121082000F06F
:1001E00097F80121102000F093F80324ADF80040A7
:1001F0008DF8024010258DF803506946154800F02F
:100200002FF80C20ADF80000134E8DF802408DF849
:1002100003506946304600F023F84FF47C40ADF8B7
:1002200000008DF802408DF8035069460B4800F03D
:1002300017F80121102000F06BF82801ADF800003C
:100240008DF802408DF803506946304600F008F8FA
:10025000F8BD00000008014000100140000C014002
:10026000F0B5CC78002204F00F03E40601D58C78B9
:1002700023430C884FF00F0C14F0FF0F4FF0010ECA
:100280001AD005680E880EFA02F42640A6420FD155
:1002900096000CFA06F7BD4303FA06F63543CE780E
:1002A000282E02D0482E02D002E0446100E0046112
:1002B000521C082AE6D305600A88FF2A1DD9456822
:1002C000002202F108060EFA06F40E882640A64225
:1002D0000FD196000CFA06F725EA070703FA06F590
:1002E000CE783D43282E00D14461CE78482E00D1EF
:1002F0000461521C082AE4D34560F0BD4161704797
:1003000001617047C1607047FEE7FEE770477047C4
:10031000044A0029916901D0014300E081439161C1
:100320007047000000100240214A10B55168214B6F
:1003300011F00C0103D0042901D0082901D0036079
:1003400012E05168536801F470114FF0020413F485
:10035000803F04EB914102D053689B0301D5164BBB
:1003600000E0144B594301605168144B01F0F00157
:1003700009095C5C0168E1404160546804F4E06490
:10038000240A1C5D21FA04F48460546804F4605467
:10039000E40A1B5DD940C1605268084B02F4404238
:1003A000920B1B1F9A5CB1FBF2F1016110BD0000C2
:1003B0000010024000127A0000093D004B000020AE
:1003C000F0B5012187B00803FFF7A2FF01213C200F
:1003D000FFF79EFF1024ADF800400325374F8DF83E
:1003E00002508DF8034069463846FFF739FF022076
:1003F000ADF800008DF802508DF803406946304892
:10040000FFF72EFF2E480C30016841F00201016019
:100410008015ADF800002B4E8DF802508DF803408A
:1004200069463046FFF71CFFF06820F48070F060EA
:100430004FF47060ADF800008DF802508DF8034065
:1004400069462148FFF70CFFE020ADF800008DF869
:10045000025018208DF8030069463846FFF700FF68
:100460004020ADF8000048208DF80300694638466A
:10047000FFF7F6FE0020ADF804004FF48271ADF8EE
:1004800006106101ADF80C00ADF80E100821ADF8B2
:100490001010ADF80800ADF80A00ADF81200072002
:1004A0000A4CADF8140001A9204600F040F80121E3
:1004B000204600F027F807B0F0BD0000000801401A
:1004C000000C0140001001400014014000300140C8
:1004D00070B50B4C05460221204600F01DF800289F
:1004E000F9D02946204600F020F80121204600F0EE
:1004F00013F80028F9D0204600F015F8C0B270BDFE
:10050000003001400029018802D041F0400101E0A3
:1005100021F04001018070470246002012890A4202
:1005200000D001207047808970478181704730B5C5
:1005300002884C8802F441530A88CD8822438C8873
:100540002C4322430C8922434C8922438C89224329
:10055000CC8922431A430280828B22F40062828378
:10056000098A018230BD7047224900200A6842F49E
:1005700080320A604FF4A0630A6800F1010012F4AF
:10058000003F01D19842F7D10868800330D51A485E
:10059000026842F010020260026822F00302026068
:1005A000026842F002020260486848604868486099
:1005B000486840F480604860486820F47C104860D7
:1005C000486840F4E8104860086840F080700860AF
:1005D00008688001FCD5486820F00300486048683E
:1005E00040F0020048604868C0F381000228FAD158
:1005F0007047000000100240002002404FF0E02150
:100600000428086903D020F004000861704740F016
:100610000400FAE74FF0E021012804D0801C06D046
:10062000002088617047086940F0010002E0086915
:1006300020F001000861704702460020D1084FF009
:10064000E023022906D0D969012393400B4200D050
:10065000012070471969F7E770474FF0E021002843
:10066000086902D040F0020001E020F002000861B9
:1006700070474FF0E0214861704700000F4810B507
:10068000016841F00101016041680D4A114041607B
:1006900001680C4A11400160016821F48021016069
:1006A000416821F4FE0141604FF41F018160FFF7B2
:1006B0005BFF05494FF00060086010BD001002406C
:1006C0000000FFF8FFFFF6FE08ED00E0FEE702E0A5
:1006D00008C8121F08C1002AFAD1704770470020CD
:1006E00001E001C1121F002AFBD1704770B504461A
:1006F000002501F03DF830B9FF2070BD2F2810D043
:100700006D1CEDB2641C207828B10A2D03D22C2870
:1007100001D97B28F2D3207830380A2803D2C0B21E
:1007200070BD641CF7E7FE2070BD03460020012A5F
:1007300002D0022A03D00BE001F1110001E0801D7C
:100740000844083804E033F8022B891E52BA1044DA
:100750000129F8D831B1197800EB012002E081B20B
:1007600001EB1040010CFAD14FF6FF714840704781
:1007700000B585B06846FFF7D7FD6FF00400FFF7BE
:100780003DFF0020FFF769FF064901984FF4FA5238
:10079000B0FBF1F1044801700199B1FBF2F1418025
:1007A00005B000BD00127A000000002010B50F4C0B
:1007B00061884843B0F1807F01D36FF07F40FFF73D
:1007C00058FF0020FFF726FF0120FFF723FF10202E
:1007D000FFF732FF60700128F9D1C01EFFF71AFF42
:1007E000BDE810400020FFF715BF0000000000200A
:1007F00010B5044600214FF47A70491C8142FCD3A5
:10080000002142F21070491C8142FCD30021491C96
:100810008142FCD34D48016841F010010160FF2284
:100820000021104600F0BAF94949002048800146ED
:10083000082000F08DF90021092000F089F900213D
:100840000C2000F085F900210D2000F081F9FE2137
:100850000A2000F07DF919210B2000F079F9FF2121
:10086000042000F075F91921052000F071F9FF212D
:10087000062000F06DF91F21072000F069F9B02172
:10088000382000F065F93F21282000F061F930217F
:10089000292000F05DF9F921302000F059F9F72105
:1008A000312000F055F90D21C02000F051F9002150
:1008B000C12000F04DF93322C221802000F06EF9F2
:1008C0001221C62000F044F90C21C72000F040F9A5
:1008D0001221C42000F03CF9DC21CA2000F038F9D4
:1008E0000521CB2000F034F92178E42000F030F924
:1008F0006178E52000F02CF9A178E22000F028F9D9
:10090000E178E32000F024F92179E02000F020F9DB
:100910006179E12000F01CF94FF480742146002039
:1009200000F0A4F82146102000F0A0F81F2000F0ED
:10093000F7F8C0221B21802000F030F904221F218B
:10094000BDE81040802000F029B900000C080140EB
:100950005C0000202DE9F04106468846392000F071
:1009600099F800284BD0274D6888C1B2002000F0CC
:10097000EFF86888010A012000F0EAF800213A2027
:1009800000F0B2F8688000213A2000F0ADF86988E4
:1009900041EA0020688000213A2000F0A5F80446D2
:1009A00000213A2000F0A0F844EA0020001F84B2A1
:1009B00000213A2000F098F8074600213A2000F084
:1009C00093F8761E47EA0020B44200DDB4B2000678
:1009D00001D4002403E04146204600F065F8688811
:1009E000C1B20C2000F0B4F86888010A0D2000F0B4
:1009F000AFF840221E21802000F0D0F82046BDE84C
:100A0000F08100005C00002070B505460E46FF2115
:100A1000022000F09DF81921032000F099F841F61A
:100A2000FF102C18E1B2062000F092F8C4F3072161
:100A3000072000F08DF8002211467A2000F0AEF871
:100A40003146284600F090F808221F21802000F04F
:100A5000A5F81C2000F01EF8800706D5BDE8704000
:100A600008221F21A02000F099B870BD10B50C46D7
:100A70000146D42000F06CF8E1B2D62000F068F80E
:100A8000210AD72000F064F8EA2000F003F8C0073C
:100A9000FAD110BD10B5044600F042F82146BDE879
:100AA0001040002000F020B870B50E4E05460C46F0
:100AB000306820F0100030603A20FFF709FD03E0B5
:100AC000FFF706FD04F8010B2800A5F10105ADB202
:100AD0004FF00000F4D12070306840F0100030601A
:100AE00070BD00000C08014070B50C4D0C46296823
:100AF00021F01001296004F01F010843FFF7E8FC12
:100B0000FF20FFF7E5FC210602D5FF20FFF7E0FC00
:100B1000296841F01001296070BD00000C080140F7
:100B200070B50A4E054600F06004307884420BD060
:100B300003221F21A02000F031F8C5F341121F212C
:100B4000802000F02BF8347070BD00005C000020A5
:100B500070B50C460546FFF7E3FF22462946BDE87F
:100B60007040402000F01AB870B50B4E04460D4698
:100B7000306820F0100030607A2001E015F8010B99
:100B8000FFF7A6FC2000A4F10104A4B2F6D130685E
:100B900040F01000306070BD0C08014070B50A4C88
:100BA00003461546206820F01000206001F01F0069
:100BB0001843FFF78DFC2846FFF78AFC206840F0B9
:100BC0001000206070BD00000C08014000F007011B
:100BD0007520FFF7BDBF7220FFF75CBF10B5002284
:100BE00029290CD3017B082909D1417B062906D18B
:100BF0000749831893F826308C5CA34201D000206B
:100C000010BD521CD2B2042AF3D3012010BD000043
:100C10006C00002010B500222A290DD3017B082981
:100C20000AD1417B41B9817B452905D10649831809
:100C30009B7F8C5CA34201D0002010BD521CD2B21D
:100C4000042AF4D3012010BD6C00002010B5044626
:100C5000002020766076402121756075A1750246DE
:100C6000142104F10E00FFF760FD010A2176607681
:100C700010BD10B50346084604E01C18401C84F85B
:100C80003610521C11780029F7D110BD10B503465B
:100C9000084603E01C18401C84F8361012F8011BAB
:100CA0000029F7D110BD00000348816811B14068E8
:100CB00022307047002070476000002010B50A4CB9
:100CC0000023227004F10C02CC5CD4545B1CDBB218
:100CD000042BF9D3044A00211032435C5354491CBD
:100CE000C9B20629F9D310BD60000020018A90F82E
:100CF0002E00044A000949BA800014395060081ACD
:100D0000906070476000002044F62060401EFDD2D5
:100D1000704710B5012000F075F8BDE810400520BF
:100D2000FFF744BD10B5074C4FF400612046FFF7B4
:100D3000E9FAFFF7E9FF2046BDE810400021FFF780
:100D4000E1BA0000000C0140491ECA1701EB127203
:100D500022F00F02891A012803D0C031C8B200F076
:100D600051B88031FAE7000070B500212348FFF741
:100D7000C9FA6420FFF71AFD032000F043F80120B0
:100D8000FFF714FDFFF7CEFF0120FFF70FFDFFF780
:100D9000C9FF022000F036F80120FFF707FD3320DD
:100DA00000F030F8322000F02DF8282000F02AF86A
:100DB0000C2000F027F8124C0026E51C6670207805
:100DC00000F020F8A6706078A17805EBC000405CC8
:100DD00000F084FCA078401CC0B2A0700728F2D9B3
:100DE0002078083020706078401CC0B260700728FE
:100DF000E5D9BDE87040FFF78CBF0000000C014052
:100E0000040000202DE9F04100F0F0050E4F0446EB
:100E10004FF4006646EA05213846FFF773FA2902C7
:100E20003846FFF76FFAFFF76FFF46EA043081B2EA
:100E30003846FFF767FA2007010C3846FFF762FAD9
:100E4000BDE8F041FFF760BF000C014010B504465B
:100E500002E0641C00F042FC20780028F9D110BDAB
:100E6000FFF7B6F9FFF784FC1F4C4FF48071204662
:100E7000FFF744FA1D4D01212846FFF741FA0221F0
:100E80002846FFF73DFA04212046FFF739FA0821EA
:100E90002046FFF735FA4FF4FA763046FFF786FC26
:100EA00001212846FFF72AFA02212846FFF726FAF1
:100EB00004212046FFF722FA08212046FFF71EFAF8
:100EC0003046FFF773FCFFF74FFF09A0FFF7BEFFA7
:100ED00001210220FFF738FF0AA0FFF7B7FFFFF755
:100EE0006FFA00F071FAFEE70010014000080140BF
:100EF0002020202045746865726E657420202020B3
:100F000000000000202020557967756C616D6173C9
:100F1000FD2020200000000070B50546002400F0F0
:100F200043F80020287502200F4968752819827D32
:100F300080F820200A5D641CE4B28275062CF5D38B
:100F400009490022091FA818037F80F826308B5C0E
:100F5000521CD2B20377042AF5D32946BDE870406B
:100F60002A20FFF751BD00007000002070B50D462B
:100F7000044600F019F8204600F026F8002084F816
:100F8000220094F82400F72804D994F82510491C6D
:100F900084F82510083084F824002146A8B2BDE862
:100FA0007040FFF731BD000010B5064B002142181C
:100FB000947944545C5C491CC9B294710629F6D3F7
:100FC00010BD00007000002010B4074B0021421833
:100FD000947E94775C5C491CC9B294760429F6D35C
:100FE00010BCFFF733BE00006C00002010B50446B3
:100FF000FFF7DAFF102084F82F0011484FF00103AB
:101000004FF00002816801B90121204600F066F826
:1010100000202074282060742046FFF7D5FF0222AC
:101020001C2104F11A00FFF780FB010A84F832103A
:1010300084F833002146BDE810403620FFF7E4BCB9
:101040006000002070B50446192084F82F000D467A
:1010500001F12800010A217460742046FFF7F6FDB3
:10106000002084F8320084F83300022205F11C01CC
:1010700004F11A00FFF759FB010A84F8321084F8D2
:10108000330036352146A8B2BDE87040FFF7BCBC3E
:1010900010B50446FFF788FF002020742C206074F0
:1010A0002046FFF791FF122084F82F000122002331
:1010B0001146204600F012F80222202104F11A0005
:1010C000FFF733FB010A84F8321084F8330021461D
:1010D000BDE810403A20FFF797BC0000F0B50024AF
:1010E00026460519641C15F8227FE4B2AF702E70F5
:1010F000022CF6D3DFF880C09CF8004080F8234033
:101100000424051915F8257F39442F792971A5F193
:10111000250513B185F8257001E085F82560090AD9
:10112000641E14F0FF04ECD163B900F8266F46701A
:101130009CF801108170C67001F10201A0F1260037
:101140008CF8011080F8326080F8336082B100F1D1
:101150002E00022101724FF0040141724FF005018F
:1011600081724FF08001C1724FF060010170F0BDDB
:10117000502180F82E10F0BD600000202DE9F047CE
:1011800089461646984604460025FFF70DFFDC2EDB
:1011900000D9DC260027277406F11C006074204665
:1011A000FFF712FF4FEA182004F8240F06F1080099
:1011B00084F80180A770E07027716771A4F124049E
:1011C00006E019F8050061196D1C81F82A00EDB2DE
:1011D000B542F6D3012206F1100104F11A00FFF71F
:1011E000A4FA010A84F8281084F82900214606F19F
:1011F0002A00BDE8F047FFF707BC000070B50D46B8
:10120000044622A20021FFF741FD81B22FA2204611
:10121000FFF73CFD81B20DB132A200E03BA22046B7
:10122000FFF734FD81B23CA22046FFF72FFD81B2CB
:1012300040A22046FFF72AFD81B2434A2046FFF72D
:1012400018FD414A81B20A3A2046FFF712FD81B2E9
:101250003EA22046FFF71AFD81B23B4A2046FFF727
:1012600008FD394A81B20A3A2046FFF702FD81B2F1
:101270000DB13EA200E043A22046FFF707FD81B278
:1012800045A22046FFF702FD80B270BD485454507D
:101290002F312E3020323030204F4B0D0A436F6EED
:1012A00074656E742D547970653A20746578742F66
:1012B00068746D6C0D0A507261676D613A206E6FD3
:1012C0002D63616368650D0A0D0A00003C63656E5D
:1012D0007465723E3C703E4C454420447572756D99
:1012E000753A20003C666F6E7420636F6C6F723DC0
:1012F0002223464630303030223E204C45442041A7
:10130000E7FD6B3C2F666F6E743E00004C45442039
:101310004B6170616CFD0000203C626F647920625B
:1013200067636F6C6F723D22233333363646462235
:101330003E200000203C736D616C6C3E3C61206877
:101340007265663D2200000088000020223E3C2F8E
:10135000613E3C2F736D616C6C3E3C2F703E0A3CCD
:10136000703E3C6120687265663D22002F30223E4F
:101370004C4544204B617061743C2F613E3C703E93
:10138000000000002F31223E4C45442041633C2F99
:10139000613E3C703E0000004578706B69747320BC
:1013A0002D20456C656B74726F456D7265202D2024
:1013B00045746865726E657420546573743C2F6162
:1013C0003E3C703E0000000088B000258C48FFF7CE
:1013D0000FFAFFF700FC8A4E8DF800000C3E311D1D
:1013E0003088C2B28648FFF769FC40F2764114208B
:1013F000FFF73CFB0220FFF7E9FBDFF80882DFF88C
:101400000892824F40F2DC5A80495046FFF7A2FA18
:101410000400F9D001467D48FFF7E0FB18B17B4896
:10142000FFF77AFDF0E721467848FFF7F3FB002845
:10143000EAD0F87D012817D006281ED01128E3D164
:1014400097F824000428DFD197F82500B028DBD1D5
:1014500097F827000838C4B26C482A3000F088F9A1
:10146000002873D000209AE097F822000828CBD1FA
:1014700021466648FFF77AFDC6E797F82400002862
:10148000C2D197F8251030888142BDD197F82F003E
:10149000810703D55D48FFF7FBFDB5E7C006B3D56F
:1014A0005A48FFF723FCFFF7FFFB0004000C08D0AD
:1014B0003C180422214656A0FEF767FE48B156A20A
:1014C0002AE097F82F00C0079ED05048FFF78EFD06
:1014D0009AE7211D02225FA0FEF757FE40B1601D72
:1014E000FFF704F9FF2816D001281BD078B342E09B
:1014F00059A200214548FFF7C9FB81B262A24348C7
:10150000FFF7C4FB3E4A81B2921D4048FFF7B1FB92
:1015100081B260A201E0634A00213C48FFF7B6FBBC
:1015200084B22DE0012144464046FEF7E9FE022147
:101530002046FEF7E5FE04214C464846FEF7E0FE55
:1015400008212046FEF7DCFE012514E056E0FFE707
:10155000012144464046FEF7D1FE02212046FEF717
:10156000CDFE04214C464846FEF7C8FE0821204621
:10157000FEF7C4FE002529462448FFF73FFE044637
:101580002248FFF733FD21462048FFF75BFD3BE78C
:10159000401CC0B2391891F82A102C290DD0A04255
:1015A000F6D3022807D3E41EA04204DC384490F8A6
:1015B0002B103D2904D03CA10FE0401CC0B2F0E745
:1015C00090F82A10742907D190F82C00312811D0F6
:1015D000302811D03F280FD036A16846FEF7CCFD49
:1015E0006846FEF7C1FDC2B2738869460748FFF737
:1015F000C5FD09E733A1F0E733A1EEE733A1ECE73E
:10160000820000200008014000100140A0000020DE
:101610004745542000000000485454502F312E30CC
:1016200020323030204F4B0D0A436F6E74656E745C
:101630002D547970653A20746578742F68746D6CD8
:101640000D0A0D0A3C68313E323030204F4B3C2FA2
:1016500068313E002F200000485454502F312E3066
:1016600020323030204F4B0D0A436F6E74656E741C
:101670002D547970653A20746578742F68746D6C98
:101680000D0A0D0A000000003C703E55736167654D
:101690003A20000070617373776F72643C2F703E64
:1016A000000000008C170008653D6E6F5F636D647D
:1016B00000000000653D6E6F5F737563685F636D6A
:1016C00064000000743D3100743D3000653D696E7A
:1016D00076616C69645F7077000000002DE9F0416D
:1016E0000446E72816D00CDCDC2C1BD004DCC72C0D
:1016F00010D0D62C17D111E0DD2C0DD0DE2C12D15C
:101700000EE0F62C0AD0FC2C0CD0FD2C04D0FE2CC4
:1017100009D105E0002406E0012404E0022402E0EF
:10172000032400E00424114F04F0F0054FF4406658
:1017300046EA05213846FEF7E5FD28463D1545EA0F
:1017400000213846FEF7DEFDFFF7DEFA46EA0430F8
:1017500081B23846FEF7D6FD45EA043081B23846FC
:10176000FEF7D0FDBDE8F041FFF7CEBA000C014016
:1017700010B5014603220448FEF707FD08B100201A
:1017800010BD012010BD00007E00002048545450C0
:101790002F312E302034303120556E617574686FD2
:1017A00072697A65640D0A436F6E74656E742D54A8
:1017B0007970653A20746578742F68746D6C0D0AC1
:1017C0000D0A3C68313E34303120556E61757468C5
:1017D0006F72697A65643C2F68313E00FC1700081F
:1017E00000000020A0000000CE0600089C180008A1
:1017F000A0000020E0090000DE0600080000000054
:10180000400000000E1010110E040000000C040433
:10181000040E000A000E1111110E00000F100E012F
:101820001E04000A00111111110E0002060E1E0EF8
:10183000060200000404040404040000100804026A
:101840000100000204060800000000010203040178
:10185000020304060708090000000000500A000007
:101860000000000000000000000000000000000078
:1018700000005000B004C0A8016438383800545546
:1018800058100024687474703A2F2F3139322E3179
:0C18900036382E312E3130302F00000091
:0400000508000131BD
:00000001FF
