:020000040800F2
:100000006004002001010008E5020008E102000888
:10001000E302000849010008DD04000800000000B8
:10002000000000000000000000000000AD03000818
:100030004B01000800000000E7020008EB03000885
:100040001B0100081B0100081B0100081B01000820
:100050001B0100081B0100081B0100081B01000810
:100060001B0100081B0100081B0100081B01000800
:100070001B0100081B0100081B0100081B010008F0
:100080001B0100081B0100081B0100081B010008E0
:100090001B0100081B0100081B0100081B010008D0
:1000A0001B0100081B0100081B0100081B010008C0
:1000B0001B0100081B0100081B0100081B010008B0
:1000C0001B0100081B0100081B0100081B010008A0
:1000D0001B0100081B0100081B0100081B01000890
:1000E0001B0100081B0100081B010008DFF80CD0F1
:1000F00000F018F8004800472107000860040020BD
:100100000648804706480047FEE7FEE7FEE7FEE7B1
:10011000FEE7FEE7FEE7FEE7FEE7FEE7ED03000889
:10012000ED000008064C074D06E0E06840F00103D2
:1001300094E8070098471034AC42F6D3FFF7DAFF93
:100140004409000864090008FEE7704738B5032435
:10015000ADF800408DF8024028258DF8035069461F
:10016000074800F05FF80C20ADF800008DF8024061
:100170008DF803506946034800F054F838BD00007C
:1001800000080140001001402DE9F843012104203E
:1001900000F0AAF80121082000F0A6F801211020A3
:1001A00000F0A2F80324ADF800408DF802401025BD
:1001B0008DF803506946184800F034F80C20ADF86B
:1001C0000000164F8DF802408DF8035069463846FE
:1001D00000F028F84FF47C40ADF80000DFF84080D4
:1001E0008DF802408DF803506946404600F01AF839
:1001F0002E01ADF800606946404600F013F8ADF8F6
:1002000000608DF802408DF803506946384600F0D2
:1002100009F8BDE8F8830000000801400010014023
:10022000000C01402DE9F001CB78002203F00F0C07
:1002300013F0100F1CBF8B7843EA0C0C0B780F26C1
:100240000125002B18BF04681AD000BF0F8805FADB
:1002500002F31F409F420FD1970006FA07F824EAE5
:1002600008040CFA07F73C43CF78282F08BF4361F6
:1002700002D0482F08BF0361521C082AE6D304604D
:100280000A88FF2A87BF44680022BDE8F001704752
:1002900002F108030F8805FA03F31F409F420FD1B4
:1002A000970006FA07F824EA08040CFA07F73C431B
:1002B000CF78282F08BF4361CF78482F08BF03614C
:1002C000521C082AE4D34460BDE8F001704702469E
:1002D000002092680A4218BF0120704741617047B0
:1002E000FEE7FEE770477047044A0029916914BF92
:1002F000084321EA000090617047000000100240AE
:10030000254910B44A6812F00C03244A18BF042B84
:1003100001D0082B01D0026015E04A684B6802F456
:1003200070124FF0020C13F4803F0CEB924203D09A
:100330004B6813F4003F03D0194B5A43026002E0AC
:10034000164B5A4302604A680F2303EA1212154BF8
:100350009A5CD0F800C02CFA02F24260D1F804C0D6
:10036000072404EA1C2C13F80CC022FA0CFCC0F879
:1003700008C0D1F804C004EADC2C13F80C30DA40D1
:10038000C2604968032303EA9131074B595CB2FB11
:10039000F1F1016110BC70470010024000127A00B8
:1003A00000093D00040000200000002070474FF0CD
:1003B000E021042808690CBF40F0040020F004008C
:1003C000086170474FF0E021012804BF086940F040
:1003D000010008D0801C07BF086920F00100002040
:1003E000886118BF7047086170477047374882B00E
:1003F000016841F0010101604168354A11404160E6
:10040000016821F4102121F080710160016821F45C
:1004100080210160416821F4FE0141604FF41F0119
:100420008160002201920092016841F480310160F4
:10043000016801F4003100910199491C0191009972
:1004400019B90199B1F5A06FF2D1016811F4003F1B
:1004500008BF009233D0012100911E490A6842F082
:1004600010020A600A6822F003020A600A6842F079
:1004700002020A604168416041684160416841F49C
:1004800080614160416821F47C114160416841F420
:10049000E8114160016841F080710160016811F06C
:1004A000007FFBD0416821F003014160416841F0C9
:1004B00002014160416801F00C010829FAD10649A6
:1004C0004FF00060086002B070470000001002406A
:1004D0000000FFF80020024008ED00E0FEE702E027
:1004E00008C8121F08C1002AFAD1704770470020BF
:1004F00001E001C1121F002AFBD1704700B585B091
:100500006846FFF7FDFE6FF00400FFF750FF4FF065
:10051000E020016921F002010161074901984FF4CF
:10052000FA52B0FBF1F1054801700199B1FBF2F10B
:10053000418005B000BD000000127A0014000020C8
:10054000114A00B551884843B0F1807F28BF6FF051
:100550007F404FF0E02358610020FFF733FF012078
:10056000FFF730FF1969002011F4803F18BF012008
:1005700050700128F6D1C01EFFF724FF00205DF85F
:1005800004EBFFF71FBF000014000020491ECA172C
:1005900001EB127222F00F02891A012804D001F136
:1005A000C000C0B200F070B801F18000C0B200F02D
:1005B0006BB8000070B5324C2068C0F309002060B1
:1005C0006420FFF7BDFF032000F05EF80120FFF775
:1005D000B7FF206840F40060206044F61F60401EB2
:1005E000B0F1FF3FFBDC206820F4006020600120B8
:1005F000FFF7A6FF206840F40060206044F61E600C
:10060000401EB0F1FF3FFBDC206820F4006020605A
:10061000022000F039F80120FFF792FF332000F0AC
:1006200033F8322000F030F8282000F02DF80C20AC
:1006300000F02AF8134C0026E51C6670207800F0C4
:1006400023F8A6706078A17805EBC000405C00F04C
:1006500015F9A078401CC0B2A0700728F2D9207804
:10066000083020706078401CC0B260700728E5D95F
:10067000012000F009F8BDE870400520FFF760BFD9
:100680000C0C0140180000201D4A1168C1F309013B
:100690001160116800F0F00341EA03211160116854
:1006A00041F40061116044F61F61491EB1F1FF3F42
:1006B000FBDC116821F40061116044F61E61491EE3
:1006C000B1F1FF3FFBDC1168C1F309011160116852
:1006D00041EA00301060106840F40060106044F699
:1006E0001E60401EB0F1FF3FFBDC106820F400608C
:1006F000106044F61E60401EB0F1FF3FFBDC704707
:100700000C0C014010B504460078002808BF10BD4D
:1007100014F8010B00F0B2F820780028F8D110BDD1
:10072000FFF732FDFFF7EAFE2C4D4FF480712846AB
:10073000FFF7D4FDFFF73EFF29A0FFF7E3FF0121FC
:100740000220FFF723FF2AA0FFF7DCFF4FF4C87059
:10075000FFF7F6FE01210220FFF718FF28A0FFF7A0
:10076000D1FFFFF7F3FC2B4C01212046FFF7AFFD33
:1007700038B101210846FFF709FF27A0FFF7C2FFA4
:1007800016E002212046FFF7A2FD28B1012108460C
:10079000FFF7FCFE25A009E004212846FFF797FD9E
:1007A00050B101210846FFF7F1FE25A0FFF7AAFF8F
:1007B0003220FFF7C5FED7E708212846FFF787FD5F
:1007C00000284FF00101084603D0FFF7DFFE21A00B
:1007D000ECE7FFF7DBFE24A0E8E700000010014093
:1007E0002D427574746F6E20546573742D00000073
:1007F0007777772E4578704B6974732E636F6D0031
:1008000020202020202020202020202020202020E8
:1008100000000000000801405357332765202042A4
:10082000617374FD6EFD7A2100000000535732277A
:1008300079652042617374FD6EFD7A21000000002D
:100840005357352765202042617374FD6EFD7A2170
:10085000000000005357342765202042617374FD67
:100860006EFD7A21000000002A4275746F6E6120CF
:10087000426173FD6EFD7A2A00000000E72816D061
:100880000CDCDC281BD004DCC72810D0D62817D1FC
:1008900011E0DD280DD0DE2812D10EE0F6280AD0B6
:1008A000FC280CD0FD2804D0FE2809D105E000204A
:1008B00006E0012004E0022002E0032000E0042022
:1008C0001F4A1168C1F309011160116800F0F00CB2
:1008D000131543EA0C2C41EA0C011160116841F434
:1008E0000061116044F61E61491EB1F1FF3FFBDC5F
:1008F000116821F40061116044F61E61491EB1F1D6
:10090000FF3FFBDC1168C1F309011160116843EA84
:10091000003008431060106840F40060106044F636
:100920001E60401EB0F1FF3FFBDC106820F4006049
:10093000106044F61E60401EB0F1FF3FFBDC7047C4
:100940000C0C014064090008000000205C0000005D
:10095000DE040008C00900085C0000200404000058
:10096000EE0400080204060800000000010203046F
:10097000010203040607080900000000400000000F
:100980000E1010110E040000000C0404040E000AE6
:10099000000E1111110E00000F100E011E04000AAE
:1009A00000111111110E0002060E1E0E06020000AB
:1009B0000404040404040000100804020100000000
:04000005080000ED02
:00000001FF
