:020000040800F2
:100000006804002045010008CD020008C90200086C
:10001000CB0200088D010008E90400080000000080
:100020000000000000000000000000008103000844
:100030008F01000800000000CF02000875040008CE
:100040005F0100085F0100085F0100085F01000810
:100050005F0100085F0100085F0100085F01000800
:100060005F0100085F0100085F0100085F010008F0
:100070005F0100085F0100085F0100085F010008E0
:100080005F0100085F0100085F0100085F010008D0
:100090005F0100085F0100085F0100085F010008C0
:1000A0005F0100085F0100085F0100085F010008B0
:1000B0005F0100085F0100085F0100085F010008A0
:1000C0005F0100085F0100085F0100085F01000890
:1000D0005F0100085F0100085F0100085F01000880
:1000E0005F0100085F0100085F0100085F01000870
:1000F0005F0100085F0100085F0100085F01000860
:100100005F0100085F0100085F0100085F0100084F
:100110005F0100085F0100085F0100085F0100083F
:100120005F0100085F0100085F0100085F0100082F
:10013000DFF80CD000F018F800480047E10600088E
:10014000680400200648804706480047FEE7FEE7AF
:10015000FEE7FEE7FEE7FEE7FEE7FEE7FEE7FEE777
:100160009904000831010008064C074D06E0E068DC
:1001700040F0010394E8070098471034AC42F6D3EE
:10018000FFF7DAFF6C0800088C080008FEE77047EC
:10019000F8B50121042000F09BF80121082000F0AF
:1001A00097F80121102000F093F80324ADF80040E7
:1001B0008DF8024028258DF803506946154800F057
:1001C0002FF80C20ADF80000134E8DF802408DF88A
:1001D00003506946304600F023F84FF47C40ADF8F8
:1001E00000008DF8024010258DF8035069460B4839
:1001F00000F016F80121102000F06AF82801ADF88F
:1002000000008DF802408DF803506946304600F03A
:1002100007F8F8BD0008014000100140000C014043
:10022000F0B5CC78002204F00F03E40601D58C78F9
:1002300023430C884FF00F0C14F0FF0F4FF0010E0A
:100240001AD005680E880EFA02F42640A6420FD195
:1002500096000CFA06F7BD4303FA06F63543CE784E
:10026000282E02D0482E02D002E0446100E0046152
:10027000521C082AE6D305600A88FF2A1DD9456862
:10028000002202F108060EFA06F40E882640A64265
:100290000FD196000CFA06F725EA070703FA06F5D0
:1002A000CE783D43282E00D14461CE78482E00D12F
:1002B0000461521C082AE4D34560F0BD41617047D7
:1002C00001617047C1607047FEE7FEE77047704705
:1002D000044A0029916901D0014300E08143916102
:1002E0007047000000100240214A10B55168214BB0
:1002F00011F00C0103D0042901D0082901D00360BA
:1003000012E05168536801F470114FF0020413F4C5
:10031000803F04EB914102D053689B0301D5164BFB
:1003200000E0144B594301605168144B01F0F00197
:1003300009095C5C0168E1404160546804F4E064D0
:10034000240A1C5D21FA04F48460546804F46054A7
:10035000E40A1B5DD940C1605268084B02F4404278
:10036000920B1B1F9A5CB1FBF2F1016110BD000002
:100370000010024000127A0000093D0053000020E6
:1003800070470000224900200A6842F480320A6067
:100390004FF4A0630A6800F1010012F4003F01D19C
:1003A0009842F7D10868800330D51A48026842F0B5
:1003B00010020260026822F003020260026842F04A
:1003C000020202604868486048684860486840F433
:1003D00080604860486820F47C104860486840F4B9
:1003E000E8104860086840F0807008600868800184
:1003F000FCD5486820F003004860486840F00200DF
:1004000048604868C0F381000228FAD170470000B4
:1004100000100240002002404FF0E021042808694B
:1004200003D020F004000861704740F00400FAE7B0
:100430004FF0E021012804D0801C06D00020886104
:100440007047086940F0010002E0086920F00100EF
:100450000861704702460020D1084FF0E0230229CE
:1004600006D0D969012393400B4200D00120704788
:100470001969F7E770474FF0E0210028086902D0BA
:1004800040F0020001E020F00200086170474FF0E8
:10049000E0214861704700000F4810B5016841F045
:1004A0000101016041680D4A1140416001680C4A38
:1004B00011400160016821F480210160416821F44C
:1004C000FE0141604FF41F018160FFF75BFF0549AA
:1004D0004FF00060086010BD001002400000FFF8FF
:1004E000FFFFF6FE08ED00E0FEE702E008C8121F7D
:1004F00008C1002AFAD170477047002001E001C10D
:10050000121F002AFBD1704700B585B06846FFF77F
:10051000EBFE6FF00400FFF77FFF0020FFF7ABFF5B
:10052000064901984FF4FA52B0FBF1F1044801700A
:100530000199B1FBF2F1418005B000BD00127A00D3
:100540000800002010B50F4C61884843B0F1807F4F
:1005500001D36FF07F40FFF79AFF0020FFF768FF9D
:100560000120FFF765FF1020FFF774FF607001287E
:10057000F9D1C01EFFF75CFFBDE810400020FFF777
:1005800057BF00000800002044F62060401EFDD246
:10059000704710B5012000F075F8BDE81040052047
:1005A000FFF7D0BF10B5074C4FF400612046FFF7AE
:1005B00089FEFFF7E9FF2046BDE810400021FFF764
:1005C00081BE0000000C0140491ECA1701EB1272E7
:1005D00022F00F02891A012803D0C031C8B200F0FE
:1005E00051B88031FAE7000070B500212348FFF7C9
:1005F00069FE6420FFF7A6FF032000F043F8012006
:10060000FFF7A0FFFFF7CEFF0120FFF79BFFFFF7EB
:10061000C9FF022000F036F80120FFF793FF3320D6
:1006200000F030F8322000F02DF8282000F02AF8F1
:100630000C2000F027F8124C0026E51C667020788C
:1006400000F020F8A6706078A17805EBC000405C4F
:1006500000F0C2F8A078401CC0B2A0700728F2D900
:100660002078083020706078401CC0B26070072885
:10067000E5D9BDE87040FFF78CBF0000000C0140D9
:100680000C0000202DE9F04100F0F0050E4F04466B
:100690004FF4006646EA05213846FFF713FE2902AB
:1006A0003846FFF70FFEFFF76FFF46EA043081B2CE
:1006B0003846FFF707FE2007010C3846FFF702FE19
:1006C000BDE8F041FFF760BF000C014010B50446E3
:1006D00002E0641C00F080F820780028F9D110BDF9
:1006E000FFF756FDFFF710FF2A4D4FF48076314695
:1006F0002846FFF7E3FDFFF777FF27A0FFF7E6FFA8
:1007000001210220FFF760FF28A0FFF7DFFF4FF471
:10071000C870FFF717FF01210220FFF755FF27A040
:10072000FFF7D4FF2A4C6068C01C606080B2FFF7FE
:1007300009FF03E031462846FFF7C2FD2088411E2D
:1007400021800028F6D1606880B2FFF7FBFE03E04D
:1007500031462846FFF7B2FD2088411E218000283F
:10076000F6D160680721B0FBF1F0401CC1B2022055
:10077000FFF72AFF17A0FFF7A9FF60686B28D2D9FF
:100780000320606001210220FFF71EFF0BA0FFF78E
:100790009DFFC8E70010014042757A7A657255796D
:1007A00067756C616D6173FD000000007777772ECF
:1007B0004578704B6974732E636F6D002020202084
:1007C00020202020202020202020202000000000A9
:1007D000000000202A0000002DE9F0410446E7282F
:1007E00016D00CDCDC2C1BD004DCC72C10D0D62C93
:1007F00017D111E0DD2C0DD0DE2C12D10EE0F62C3D
:100800000AD0FC2C0CD0FD2C04D0FE2C09D105E024
:10081000002406E0012404E0022402E0032400E0B6
:100820000424114F04F0F0054FF4406646EA052118
:100830003846FFF747FD28463D1545EA0021384672
:10084000FFF740FDFFF7A0FE46EA043081B23846CC
:10085000FFF738FD45EA043081B23846FFF732FD34
:10086000BDE8F041FFF790BE000C01408C08000885
:100870000000002064000000EA040008F0080008FE
:100880006400002004040000FA04000800000000D6
:100890000000000000000000400000000E101011D9
:1008A0000E040000000C0404040E000A000E1111D6
:1008B000110E00000F100E011E04000A001111118C
:1008C000110E0002060E1E0E0602000004040404AF
:1008D00004040000100804020100000204060800DD
:1008E00000000001020304010203040607080900D6
:0400000508000131BD
:00000001FF
