:020000040800F2
:100000002004002001010008170300080F03000866
:10001000130300084901000815060008000000004D
:1000200000000000000000000000000011040008B3
:100030004D010008000000001903000885050008B4
:100040001B0100081B0100081B0100081B01000820
:100050001B0100081B0100081B0100081B01000810
:100060001B0100081B0100081B0100081B01000800
:100070001B0100081B0100081B0100081B010008F0
:100080001B0100081B0100081B0100081B010008E0
:100090001B0100081B0100081B0100081B010008D0
:1000A0001B0100081B0100081B0100081B010008C0
:1000B0001B0100081B0100081B0100081B010008B0
:1000C0001B0100081B0100081B0100081B010008A0
:1000D0001B0100081B0100081B0100081B01000890
:1000E0001B0100081B0100081B010008DFF80CD0F1
:1000F00000F018F800480047D1060008200400204E
:100100000648804706480047FEE7FEE7FEE7FEE7B1
:10011000FEE7FEE7FEE7FEE7FEE7FEE7B5050008BF
:10012000ED000008064C074D06E0E06840F00103D2
:1001300094E8070098471034AC42F6D3FFF7DAFF93
:1001400090070008B007000800BFFEE770470000F6
:1001500008B50121042000F0E1F80121082000F099
:10016000DDF80121102000F0D9F80320ADF80000DF
:100170008DF8020010208DF8030069461A4800F03F
:1001800039F80C20ADF8000003208DF80200102093
:100190008DF803006946154800F02CF84FF47C40B8
:1001A000ADF8000003208DF8020010208DF8030048
:1001B00069460F4800F01EF84FF48070ADF800005B
:1001C00069460B4800F016F84FF48070ADF8000057
:1001D00003208DF8020010208DF8030069460348C3
:1001E00000F008F808BD00000008014000100140C0
:1001F000000C01402DE9F0410246002500260020B8
:1002000000230024002791F803C00CF00F0591F89B
:1002100003C01CF0100F03D091F802C04CEA050592
:1002200091F800C0BCF1000F31D0146800202BE021
:100230004FF0010C0CFA00F3B1F800C00CEA030611
:100240009E4220D183004FF00F0C0CFA03F7BC4301
:1002500005FA03FC4CEA040491F803C0BCF1280F32
:1002600006D14FF0010C0CFA00FCC2F814C00AE0F1
:1002700091F803C0BCF1480F05D14FF0010C0CFA06
:1002800000FCC2F810C0401C0828D1D31460B1F89B
:1002900000C0BCF1FF0F34DD546800202EE000F1F7
:1002A000080C4FF0010808FA0CF3B1F800C00CEA92
:1002B00003069E4221D183004FF00F0C0CFA03F786
:1002C000BC4305FA03FC4CEA040491F803C0BCF1FA
:1002D000280F05D100F1080C08FA0CF8C2F81480B8
:1002E00091F803C0BCF1480F07D100F1080C4FF0A2
:1002F000010808FA0CF8C2F81080401C0828CED378
:100300005460BDE8F081416170470161704700BFF2
:10031000FEE700BFFEE770477047000029B1064ABC
:1003200092690243044B9A6104E0034A9269824352
:10033000014B9A61704700000010024030B5002167
:100340000022002400232D4D6D6805F00C0121B121
:10035000042905D0082923D105E0294D056022E0B4
:10036000274D05601FE0254D6D6805F47012234D83
:100370006D6805F48034022505EB92421CB9214DCD
:10038000554305600BE01D4D6D6815F4003F03D02B
:100390001C4D5543056002E0194D5543056002E0D0
:1003A000174D056000BF00BF144D6D6805F0F001EA
:1003B0000909154D6B5C0568DD4045600F4D6D68A2
:1003C00005F4E061090A104D6B5C4568DD4085600D
:1003D0000A4D6D6805F46051C90A0B4D6B5C4568A8
:1003E000DD40C560054D6D6805F44041890B074D42
:1003F0006B5CC568B5FBF3F5056130BD00100240CC
:1004000000127A0000093D000000002010000020CA
:10041000704710B500F002F810BD00000CB50020C8
:10042000019000903248006840F480303049086004
:1004300000BF2F48006800F4003000900198401C75
:100440000190009818B90198B0F5A06FF1D1284833
:10045000006810F4003F02D00120009001E000206D
:1004600000900098012842D12248006840F0100016
:10047000204908600846006820F00300086008462C
:10048000006840F002000860194840681849486058
:100490000846406848600846406840F4806048600C
:1004A0000846406820F47C1048600846406840F4E4
:1004B000E81048600846006840F08070086000BF9F
:1004C0000B48006810F0007FFAD00948406820F01F
:1004D0000300074948600846406840F00200486051
:1004E00000BF0348406800F00C000828F9D10CBD9B
:1004F0000010024000200240042808D14FF0E02103
:10050000096941F004014FF0E022116107E04FF06A
:10051000E021096921F004014FF0E02211617047E8
:10052000012808D14FF0E021096941F001014FF0A5
:10053000E02211610EE0811C08D14FF0E021096931
:1005400021F001014FF0E022116103E000214FF0A2
:10055000E0229161704710B501460022002300207F
:10056000CB10022B03D14FF0E024226902E04FF0C0
:10057000E024E26901248C40144201D0012000E013
:10058000002010BD704740B14FF0E021096941F0F3
:1005900002014FF0E022116107E04FF0E02109690C
:1005A00021F002014FF0E022116170474FF0E0218D
:1005B0004861704710B51348006840F001001149C8
:1005C000086008464068104908400E4948600846DF
:1005D00000680E4908400B4908600846006820F48E
:1005E000802008600846406820F4FE0048604FF410
:1005F0001F008860FFF70DFF4FF00060044908609E
:1006000010BD0000001002400000FFF8FFFFF6FEE2
:1006100008ED00E000BFFEE702E008C8121F08C1B5
:10062000002AFAD170477047002001E001C1121F73
:10063000002AFBD17047000000B585B06846FFF77F
:100640007DFE6FF00400FFF757FF0020FFF79BFFD0
:1006500007490198B0FBF1F0064908704FF4FA51D0
:100660000198B0FBF1F00449088005B000BD00001E
:1006700000127A00140000201600002030B5044655
:100680001148008800FB04F5B5F1807F01D36FF0BD
:100690007F452846FFF78AFF0020FFF741FF012032
:1006A000FFF73EFF00BF1020FFF755FF0749087016
:1006B000084600780128F6D1C01EFFF731FF002060
:1006C000FFF72EFF30BD00001600002018000020AC
:1006D0000024FFF73DFDFFF7AFFF53E034B1012CDD
:1006E00015D0022C24D0032C44D132E0012126481D
:1006F000FFF70BFE02212448FFF705FE04212348E3
:10070000FFF701FE08212148FFF7FDFD32E001213E
:100710001D48FFF7F8FD02211B48FFF7F6FD0421F5
:100720001A48FFF7F0FD08211848FFF7ECFD21E01B
:1007300001211548FFF7E7FD02211348FFF7E3FD0C
:1007400004211248FFF7E1FD08211048FFF7DBFD07
:1007500010E001210C48FFF7D6FD02210A48FFF7FF
:10076000D2FD04210948FFF7CEFD08210748FFF715
:10077000CCFD00BF00BFFA20FFF780FF641C042CF3
:1007800000D10024AAE70000000801400010014049
:10079000B0070008000000201C0000001806000838
:1007A000CC0700081C0000200404000028060008F4
:1007B0000000000001020304010203040607080907
:0C07C00002040608000000000000000019
:04000005080000ED02
:00000001FF
