:020000040800F2
:100000007804002045010008B7080008B30800087C
:10001000B508000861070008FD0A0008000000009C
:100020000000000000000000000000006D09000852
:100030006307000800000000B9080008610A000812
:100040005F0100085F0100085F0100085F01000810
:100050005F0100085F0100085F0100085F01000800
:100060005F0100085F0100085F0100085F010008F0
:100070005F0100085F0100085F0100085F010008E0
:100080005F0100085F0100085F0100085F010008D0
:100090005F0100085F0100085F0100085F010008C0
:1000A0005F0100085F0100085F0100085F010008B0
:1000B0005F0100085F0100085F0100085F010008A0
:1000C0005F0100085F0100085F0100085F01000890
:1000D0005F0100085F0100085F0100085F01000880
:1000E0005F0100085F0100085F0100085F01000870
:1000F0005F0100085F0100085F0100085F01000860
:100100005F0100085F0100085F0100085F0100084F
:100110005F0100085F0100085F0100085F0100083F
:100120005F0100085F0100085F0100085F0100082F
:10013000DFF80CD000F072FA0048004731160008D2
:10014000780400200648804706480047FEE7FEE79F
:10015000FEE7FEE7FEE7FEE7FEE7FEE7FEE7FEE777
:10016000850A000831010008420005D0C0F3C752DB
:100170005242914201DC0020704700EBC1507047B1
:10018000C10F80EAE0700844CA079623002100F0FE
:1001900066B800F0004230F000400DD0C10D01F50E
:1001A000607142EA01510022C0F31600520742EA90
:1001B000D00240071143704700200146704730B518
:1001C0000B46014600202022012409E021FA02F515
:1001D0009D4205D303FA02F5491B04FA02F52844AF
:1001E000151EA2F10102F1DC30BD2DE9F05F0546DC
:1001F000002092469B4688460646814640241BE0E6
:10020000284641464746224600F029FA52465B46B8
:10021000801A994110D310461946224600F010FA70
:100220002D1A67EB01084F4622460120002100F0FD
:1002300007FA17EB00094E41201EA4F10104DFDC90
:10024000484631462A464346BDE8F09F0029A8BFEC
:100250007047401C490008BF20F00100704710B4EF
:10026000B0FA80FC00FA0CF050EA010404BF10BCA4
:10027000704749B1CCF1200421FA04F411FA0CF1D1
:1002800018BF012121430843A3EB0C01CB1D01063C
:10029000000A002BBEBF002010BC704700EBC3500B
:1002A00010440029A4BF10BC7047401C490008BF7F
:1002B00020F0010010BC70472DE9FE4F074681EA8F
:1002C0000300C00F0E46019021F0004123F00044CE
:1002D000B81AA14105D23846314617461E460B468C
:1002E000024623F00040104304D13846314603B0A3
:1002F000BDE8F08F350DC5F30A00C3F30A51029033
:10030000401A0090402868DAC3F3130040F4801BC1
:100310000198924620B10023D2EB030A63EB0B0B4A
:1003200000985946C0F14002504600F089F98046D5
:100330000C4650465946009A00F0A1F9C019714187
:10034000EF1785EA11533B4340D0019A52B3009A0C
:10035000012A11DC0022801A4FF0004361EB0551A5
:1003600003EA05538018CDE9002341F58011424688
:10037000234600F0A3F9BAE72E050025401B61EBE8
:100380000601401941F58012001852412818A6F5BF
:10039000001343EB020140EAD470294318EB08082C
:1003A000644113E064084FEA38084FF0000244EA61
:1003B000C0744FEA0553801A61EB0301801841F5C0
:1003C000801149084FEA30008018594142462346BF
:1003D00003B0BDE8F04F00F064B90198012240007D
:1003E0000023D0EB020263EBE07301984FEAE07464
:1003F000381A66EB0401EBE783F000435CE781F019
:10040000004159E72DE9FE4F81EA030421F0004540
:1004100004F0004423F000414FF0000A009450EA39
:10042000050302D052EA010304D10020014603B0C3
:10043000BDE8F08FC1F30A53C5F30A541C44A0FB76
:1004400002B3C5F3130545F4801CC1F3130141F455
:1004500080180CFB023300FB083EA4F2F334810A3F
:10046000930A41EA8C5143EA88530194A1FB034764
:100470004FEA9C2505FB03734FEA982601FB0637DC
:100480003D05260545EA1435BBEB06016EEB050379
:10049000850E920E45EA8C1542EA8812A5FB0206EB
:1004A000261E67EB00070C0D44EA0334A41947EB42
:1004B0001350C1F313064FF0000319464FEA0333FC
:1004C00043EA165343EA0403019CE5FB0201A4F14D
:1004D0000C040294009C4FEA0632CDE900A400F01F
:1004E000EDF8A4E72DE9F04D81EA030404F0004B98
:1004F00021F0004714464FF0000A23F0004150EA73
:10050000070220D054EA01021DD0C1F30A55024669
:10051000C1F31300C7F30A56C7F3130340F4801165
:1005200043F48013A6EB0508101BD64608F2FD38ED
:1005300073EB010002D308F1010801E092185B415E
:10054000B8F1000F03DA00200146BDE8F08D00206D
:100550004FF48015064607460EE0B2EB040C73EB31
:10056000010C04D3121B064363EB01032F436D08F8
:100570004FEA300092185B4150EA050CEDD152EA87
:10058000030012D082EA040083EA0105284303D164
:1005900000224FF0004308E0101B8B4102D20122E1
:1005A000002302E06FF0010253101AEB060047EB44
:1005B000085110EB0A0041EB0B01BDE8F04D00F0D3
:1005C00070B8C1F30A52C1F3130140F2FF3341F492
:1005D00080119A4202DA00200146704740F233430C
:1005E0009A42A2F2334202DC524200F038B800F0E4
:1005F00027B8000030B5002904DB4FF0004440422A
:1006000064EB0101002B04DB4FF00044524264EB29
:100610000303994208BF904230BD0000064C074DCD
:1006200006E0E06840F0010394E8070098471034C2
:10063000AC42F6D3FFF780FDB8180008D8180008C0
:10064000202A04DB203A00FA02F100207047914092
:10065000C2F1200320FA03F3194390407047202A87
:1006600004DB203A21FA02F00021704721FA02F35C
:10067000D040C2F120029140084319467047202A19
:1006800006DBCB17203A41FA02F043EAE0717047EB
:1006900041FA02F3D040C2F12002914008431946CA
:1006A000704710B5002B08DA401C41F10001921888
:1006B0005B411A4301D120F0010010BD2DE9F04D3E
:1006C00092469B4611B1B1FA81F202E0B0FA80F293
:1006D00020329046FFF7B4FF06460F4640EA0A0074
:1006E00041EA0B0152465B46084303D13046394686
:1006F000BDE8F08D194652EA010015D0C8F140025C
:100700005046FFF7ACFF04460D4650465946424658
:10071000FFF796FF084301D0012000E000200443CA
:1007200045EAE07526432F430A984FEAD625A0EB09
:1007300008000A304FEA46534FF0000245EA475599
:100740004FEAD72402D500200146D1E70105501910
:100750006141DDE9084500196941BDE8F04DA0E7B8
:10076000FEE7704700EB40004000401EFDD270479E
:10077000F8B50121042000F0A1F80121082000F0C3
:100780009DF80121102000F099F80324ADF80040F5
:100790008DF8024028258DF803506946154800F071
:1007A0002FF80C20ADF80000134E8DF802408DF8A4
:1007B00003506946304600F023F84FF47C40ADF812
:1007C00000008DF8024010258DF8035069460B4853
:1007D00000F016F80121102000F070F82801ADF8A3
:1007E00000008DF802408DF803506946304600F055
:1007F00007F8F8BD0008014000100140000C01405E
:10080000F0B5CC78002204F00F03E40601D58C7813
:1008100023430C884FF00F0C14F0FF0F4FF0010E24
:100820001AD005680E880EFA02F42640A6420FD1AF
:1008300096000CFA06F7BD4303FA06F63543CE7868
:10084000282E02D0482E02D002E0446100E004616C
:10085000521C082AE6D305600A88FF2A1DD945687C
:10086000002202F108060EFA06F40E882640A6427F
:100870000FD196000CFA06F725EA070703FA06F5EA
:10088000CE783D43282E00D14461CE78482E00D149
:100890000461521C082AE4D34560F0BD02460020E2
:1008A00092680A4200D00120704741617047C160E0
:1008B0007047FEE7FEE7704770470000044A0029D2
:1008C000916901D0014300E08143916170470000CC
:1008D00000100240214A10B55168214B11F00C0163
:1008E00003D0042901D0082901D0036012E0516827
:1008F000536801F470114FF0020413F4803F04EBCD
:10090000914102D053689B0301D5164B00E0144B74
:10091000594301605168144B01F0F00109095C5C16
:100920000168E1404160546804F4E064240A1C5DFD
:1009300021FA04F48460546804F46054E40A1B5DF2
:10094000D940C1605268084B02F44042920B1B1F11
:100950009A5CB1FBF2F1016110BD00000010024091
:1009600000127A0000093D0054000020704700008A
:10097000224900200A6842F480320A604FF4A063E2
:100980000A6800F1010012F4003F01D19842F7D14A
:100990000868800330D51A48026842F010020260ED
:1009A000026822F003020260026842F00202026062
:1009B0004868486048684860486840F4806048601B
:1009C000486820F47C104860486840F4E8104860AB
:1009D000086840F08070086008688001FCD54868AD
:1009E00020F003004860486840F002004860486812
:1009F000C0F381000228FAD17047000000100240C5
:100A0000002002404FF0E0210428086903D020F0C4
:100A100004000861704740F00400FAE74FF0E0215D
:100A2000012804D0801C06D0002088617047086926
:100A300040F0010002E0086920F001000861704701
:100A400002460020D1084FF0E023022906D0D969E0
:100A5000012393400B4200D0012070471969F7E74A
:100A600070474FF0E0210028086902D040F00200F2
:100A700001E020F00200086170474FF0E02148617A
:100A8000704700000F4810B5016841F00101016096
:100A900041680D4A1140416001680C4A11400160F3
:100AA000016821F480210160416821F4FE01416068
:100AB0004FF41F018160FFF75BFF05494FF00060B5
:100AC000086010BD001002400000FFF8FFFFF6FEB6
:100AD00008ED00E007494FF400720A8003228A7093
:100AE00028B14820C87003490348FFF789BE142085
:100AF000F8E700004C000020000C0140FEE7000079
:100B00000FB4084B10B504A902AA039800F0C8F866
:100B1000044602A9002000F070FC204610BC5DF8DD
:100B200014FB0000FB13000802E008C8121F08C1F4
:100B3000002AFAD170477047002001E001C1121F5E
:100B4000002AFBD1704700002DE9FF5FDDE90210AC
:100B5000020DDDF838B001430FD10F9801244BA3EB
:100B6000012807D000980F9AC0E90031C0E902427D
:100B7000BDE8FF9F6FEA0B01F4E7A2F2FF3244F6F3
:100B80001050424315140F9801280ED0A5EB0B000E
:100B9000401C4FF000043E4EDFF8F890B0F1000A20
:100BA000A04605DACAF1000717E0CBF10000F0E734
:100BB000074612E0F80707D022463346404649462A
:100BC000FFF720FC804689462246334610461946E8
:100BD000FFF718FC04460E467F10002FEAD1DDE92E
:100BE0000201BAF1000F42464B4602DAFFF70AFC57
:100BF00001E0FFF777FC04460E460022264BFFF784
:100C0000F9FC03D84FF0FF30014607E00022234BE8
:100C100020463146FFF750FBFFF7D3FC102409E0D4
:100C2000002C0ADB0A220023FFF7DFFA019B303297
:100C30001A55641E50EA0102F2D1641C019AC4F1F3
:100C4000110314440F9A012A09D00122084301D14B
:100C50005B450FDD4FF0000205F101050DE0084393
:100C600003D1A3EB0B056D1E09E000204FF0110B23
:100C70000F9088E701DA00226D1E002A83D00098C9
:100C80000F99C0E90231C0E9004571E7300000006A
:100C9000000024400000F03F0000F0430000E03F6F
:100CA0002DE9FF4F95B006469A468946002521E278
:100CB000252801D01799A6E00024F9492746761C7B
:100CC0004FF0010803943278203A08FA02F0084203
:100CD00002D00443761CF6E730782A2811D06FF052
:100CE0002F023078A0F13001092916D8039944F079
:100CF000020401EB810102EB41010844761C0390E0
:100D0000EFE759F8041B0391002903DA484244F441
:100D10000054039044F00204761C30782E2816D13B
:100D200016F8010F44F004042A280DD06FF02F01AB
:100D30003078A0F13002092A09D807EB870201EBCD
:100D400042028718761CF3E759F8047B761C30784A
:100D50006C280FD006DC4C2817D068280DD06A28E4
:100D600014D104E0742810D07A280FD10DE044F497
:100D700000140AE044F4801401E044F44014717853
:100D8000814202D1761C04F58014761C96F800C0CE
:100D9000BCF1660F10D01ADCBCF1580F70D00CDC1F
:100DA000BCF1000F6DD0BCF1450FF3D0BCF1460F84
:100DB000F0D0BCF1470F24D1A4E1BCF1630F40D0C7
:100DC000BCF1640F74D0BCF1650F1AD19AE1BCF18B
:100DD000700F6ED00CDCBCF1670FEDD0BCF1690F69
:100DE00075D0BCF16E0F12D0BCF16F0F09D1B3E01A
:100DF000BCF1730F2FD0BCF1750F76D0BCF1780F1A
:100E000074D017996046524690476D1C70E1C4F348
:100E10000250022809D003280DD0D9F80010042868
:100E20000DD00D6009F1040962E1D9F80010EA174C
:100E3000C1E90052F6E7D9F800100D80F2E70D7015
:100E4000F0E759F8041B8DF8001000208DF8010020
:100E5000EB46012003E059F804BB4FF0FF30610777
:100E60004FF0000102D40FE008F101018846B942B9
:100E700011DA8045F8DB1BF808100029F4D10AE0EC
:100E800060E03BE108F1010188468142FADB1BF892
:100E900008100029F6D103985346A0EB0807214615
:100EA0003846179A00F091FA284400EB080506E04E
:100EB0000DE049E01BF8010B524617999047B8F135
:100EC0000108F7D2534621463846179A0DE10A2108
:100ED000C4F302524FF0000B0091022A07D059F8D8
:100EE000040BC117032A0AD00BE024E025E009F126
:100EF000070020F00702F2E80201914605E000B287
:100F0000C117042A01D140B2C117002906DA0A46E6
:100F10000021404261EB02012D2202E0220504D5AE
:100F20002B228DF80420012203E0E20701D02022C9
:100F3000F7E7904654E00A2100E010214FF0000B43
:100F400000910DE0102008E010204FF0000B44F05D
:100F500004040827009003E008204FF0000B0090E5
:100F6000C4F30252022A05D059F8040B0021032AC7
:100F700008D009E009F1070020F00702F2E80201B9
:100F8000914605E080B20021042A01D1C0B20021BF
:100F90004FF00008220723D5BCF1700F28D0009B2A
:100FA00083F0100353EA0B0309D150EA010206D083
:100FB00030228DF804208DF805C002229046009B57
:100FC00083F0080353EA0B030AD150EA010201D16E
:100FD000620705D530228DF804204FF001087F1EEE
:100FE000BCF1580F09D02FA20C920CAA029211E06A
:100FF00040228DF804200122E0E72FA2F4E75B46AF
:10100000009AFFF7F2F80C9B9B5C029AA2F1010296
:101010000292137050EA0102F1D1029804A9A1EBE7
:10102000000000F1200B600702D524F4803400E0BA
:1010300001275F4502DDA7EB0B0000E0002000EB7D
:101040000B01009003984144A0EB01000390E003E2
:1010500006D453462146179A039800F0B6F9054482
:10106000002706E001A85246C05D179990476D1C05
:101070007F1C4745F6DBE0030CD553462146179A03
:10108000039800F0A2F9054404E030205246179975
:1010900090476D1C0099481E00900029F5DC1EE069
:1010A000092801003031323334353637383961623E
:1010B0006364656600000000303132333435363702
:1010C00038394142434445460000000002980299E5
:1010D00052460078491C0291179990476D1CBBF14C
:1010E0000001ABF1010BF1DC50E100F05BF90544CC
:1010F00006F10106307800287FF4DAAD19B02846F1
:10110000BDE8F08F600700D4062709F1070020F042
:101110000701F1E80220894600F00043190001D0E0
:101120009DA109E0210501D59CA105E0E10701D0C1
:101130009BA101E0AFF2840120F000431391BCF1C8
:10114000650F11D009DCBCF1450F0DD0BCF1460F85
:1011500020D0BCF1470F3ED13EE0BCF1660F19D064
:10116000BCF1670F7CD137E00021112F01DB11208A
:1011700000E0781CCDE9000104A90CA8FFF7E4FC0D
:10118000DDE90D010C9A4FF0000B07F101081092F8
:1011900000914CE04FF000400097CDE9018004A998
:1011A0000CA8FFF7D1FCDDE90E20DDE90C314FF092
:1011B000000B90461093009218B907F1010001EB63
:1011C0000008B7EB080003D4C0F1FF3B07F10108AA
:1011D000A8EB0700019043E0012F00DA012700216E
:1011E000112F01DD112000E03846CDE9000104A9EE
:1011F0000CA8FFF7A9FCDDE90D010C9A00914FF056
:10120000000BB846109221070CD40099414500DA32
:101210008846B8F1010F05DD109AA8F10101515C73
:10122000302908D0B84202DA10F1040F06DA0121A1
:10123000CDE9011014E0A8F10101E9E7002803DC81
:101240008344A8EB000102E0411C414500DD8846D3
:10125000A0EB0B0000F1010001904FF00040029064
:10126000200705D40198404502DB4FF0FF30019084
:1012700000208DF84B0002980DF14B07B0F1004FA4
:1012800026D002200C902B200D90029800280CDA1A
:10129000404202902D200D9007E00A210298FEF7AF
:1012A0008EFF3031029007F8011D0C99481E0C90FA
:1012B0000029F2DC02980028EFD1A7F101010D9876
:1012C0000870307800F0200040F0450007F8020D6B
:1012D00011A8A0EB070000F1070002901398007816
:1012E00000B1012000EB0801019801EBE0710298C8
:1012F00001440398A0EB0100A0F101000390E0037A
:1013000006D453462146179A039800F05EF8054428
:101310001398007820B152461799904705F10105BE
:10132000E00322D553462146179A039800F04DF862
:1013300005441AE0BBF1000F07DB0098584504DDB7
:101340001098179910F80B0001E0179930205246B9
:10135000904701986D1C401E0BF1010B019004D1C8
:101360002E205246179990476D1CB8F10001A8F144
:101370000108DFDC05E017F8010B5246179990478A
:101380006D1C0299481E02900029F4DC5346214648
:10139000179A0398A9E600002D0000002B0000001A
:1013A000200000002DE9F0410446002517461E46A6
:1013B000880405D406E039462020B04705F1010530
:1013C000641EF8D52846BDE8F0812DE9F0410446B9
:1013D000002590461E46C80301D5302700E020278F
:1013E000880405D506E041463846B04705F10105B9
:1013F000641EF8D52846BDE8F0810A68531C0B60CE
:101400001070704700B585B06846FFF763FA6FF05B
:101410000400FFF7F7FA0020FFF723FB06490198C5
:101420004FF4FA52B0FBF1F1044801700199B1FB9D
:10143000F2F1418005B000BD00127A0004000020E6
:1014400010B50F4C61884843B0F1807F01D36FF035
:101450007F40FFF712FB0020FFF7E0FA0120FFF7C3
:10146000DDFA1020FFF7ECFA60700128F9D1C01EF8
:10147000FFF7D4FABDE810400020FFF7CFBA000014
:101480000400002010B500F07FF9CC2000F098F99E
:10149000442000F095F902E000F048F90446002CE1
:1014A000FAD000F071F9CC2000F08AF9BE2000F0EB
:1014B00087F900F03BF9044600F038F904EB00200E
:1014C000FEF75EFE6FF00301FEF74EFE0446FA20C3
:1014D000FFF7B6FF204610BD44F62060401EFDD247
:1014E000704710B5012000F075F8BDE810400520E8
:1014F000FFF7A6BF10B5074C4FF400612046FFF779
:10150000D6F9FFF7E9FF2046BDE810400021FFF7BC
:10151000CEB90000000C0140491ECA1701EB12723F
:1015200022F00F02891A012803D0C031C8B200F09E
:1015300051B88031FAE7000070B500212348FFF769
:10154000B6F96420FFF77CFF032000F043F8012088
:10155000FFF776FFFFF7CEFF0120FFF771FFFFF7E0
:10156000C9FF022000F036F80120FFF769FF3320A1
:1015700000F030F8322000F02DF8282000F02AF892
:101580000C2000F027F8124C0026E51C667020782D
:1015900000F020F8A6706078A17805EBC000405CF0
:1015A00000F040F9A078401CC0B2A0700728F2D922
:1015B0002078083020706078401CC0B26070072826
:1015C000E5D9BDE87040FFF78CBF0000000C01407A
:1015D000080000202DE9F04100F0F0050E4F044610
:1015E0004FF4006646EA05213846FFF760F9290204
:1015F0003846FFF75CF9FFF76FFF46EA043081B227
:101600003846FFF754F92007010C3846FFF74FF929
:10161000BDE8F041FFF760BF000C014010B5044683
:1016200002E0641C00F0FEF820780028F9D110BD1B
:10163000FFF79EF8FFF7E6FE4FF480711D48FFF7B5
:1016400034F9FFF779FF1CA0FFF7E8FF0121022022
:10165000FFF762FF1DA0FFF7E1FF40F2DC50FFF74C
:10166000EFFE01210220FFF757FF1DA0FFF7D6FF75
:10167000204D214CFFF706FF2060A84204DD1FA18A
:101680002348FFF73DFA07E0FEF783FD02460B46CD
:1016900020A11F48FFF734FA01210220FFF73CFF89
:1016A0001B48FFF7BBFF052000F0BCF81DA0FFF7AB
:1016B000B5FFDFE7001001402020202044533138DF
:1016C0004232302020202020000000007777772E43
:1016D0004578704B6974732E636F6D2000000000B5
:1016E00020202020202020202020202020202020FA
:1016F0000000000000F07F45000000202020205363
:10170000656E73F67220596F6B2020200000000078
:101710006400002020204973FD3A2025332E3166D5
:101720000000000043202020000000002DE9F041CF
:1017300000260125DFF84C8034466F020020FFF7B9
:10174000C9F939464046FFF7B0F80620FFF70AF816
:101750000120FFF7BFF90420FFF704F8394640469F
:10176000FFF79CF8C00700D02E433220FEF7FAFFA7
:101770006806641C050EE4B2082CDFD33046BDE8D1
:10178000F0810000000C014010B50020FFF7A2F925
:101790004FF400710948FFF788F84FF4F070FEF736
:1017A000E1FF0120FFF796F94FF4C870FEF7DAFF6A
:1017B000BDE810400020FFF78DB90000000C01408B
:1017C0002DE9F04101250024DFF8548006466F0220
:1017D0002E424FF000000FD0FFF77CF9394640460B
:1017E000FFF763F80320FEF7BDFF0120FFF772F952
:1017F0003C20FEF7B7FF0BE0FFF76CF93946404697
:10180000FFF753F83C20FEF7ADFF0120FFF762F928
:101810006806641C050EE4B2082CD9D3BDE8F0813B
:10182000000C01402DE9F0410446E72816D00CDCFD
:10183000DC2C1BD004DCC72C10D0D62C17D111E027
:10184000DD2C0DD0DE2C12D10EE0F62C0AD0FC2CB3
:101850000CD0FD2C04D0FE2C09D105E0002406E0BC
:10186000012404E0022402E0032400E00424114FD8
:1018700004F0F0054FF4406646EA05213846FFF7CC
:1018800016F828463D1545EA00213846FFF70FF8BF
:10189000FFF722FE46EA043081B23846FFF707F828
:1018A00045EA043081B23846FFF701F8BDE8F0415F
:1018B000FFF712BE000C0140D818000800000020FD
:1018C00064000000280B00083C1900086400002098
:1018D00014040000380B00080000000000000000A5
:1018E000400000000E1010110E040000000C040453
:1018F000040E000A000E1111110E00000F100E014F
:101900001E04000A00111111110E000C12120C001D
:101910000000000004040404040400001008040291
:1019200001000000000000000204060800000000A2
:0C19300001020304010203040607080979
:0400000508000131BD
:00000001FF
