:020000040800F2
:10000000B005002001010008330400082B0400089B
:100010002F040008EB010008F109000800000000AF
:10002000000000000000000000000000D9060008E9
:10003000EF01000800000000350400084D0800082A
:100040001B0100081B0100081B0100081B01000820
:100050001B0100081B0100081B0100081B01000810
:100060001B0100081B0100081B0100081B01000800
:100070001B0100081B0100081B0100081B010008F0
:100080001B0100081B0100081B0100081B010008E0
:100090001B0100081B0100081B0100081B010008D0
:1000A0001B0100081B0100081B0100081B010008C0
:1000B0001B0100081B0100081B0100081B010008B0
:1000C0001B0100081B0100081B0100081B010008A0
:1000D0001B0100081B0100081B0100081B01000890
:1000E0001B0100081B0100081B010008DFF80CD0F1
:1000F00000F04AF800480047C9160008B005002083
:100100000648804706480047FEE7FEE7FEE7FEE7B1
:10011000FEE7FEE7FEE7FEE7FEE7FEE77D080008F4
:10012000ED0000082DE9F05F0546002092469B4651
:1001300088460646814640241BE0284641464746FD
:10014000224600F042F853465A46C01A914110D355
:1001500011461846224600F029F82D1A67EB0108CF
:100160004F4622460120002100F020F817EB00093D
:100170004E41201EA4F10104DFDC484631462A46E8
:100180004346BDE8F09F0000064C074D06E0E068DE
:1001900040F0010394E8070098471034AC42F6D3CE
:1001A000FFF7A8FF441D0008641D0008202A04DB97
:1001B000203A00FA02F1002070479140C2F120037A
:1001C00020FA03F3194390407047202A04DB203AB9
:1001D00021FA02F00021704721FA02F3D040C2F167
:1001E0002002914008431946704700BFFEE7704760
:1001F00008B50121042000F01FF90121082000F0BA
:100200001BF90121102000F017F90320ADF80000C0
:100210008DF8020010208DF8030069461A4800F09E
:1002200077F80C20ADF8000003208DF802001020B4
:100230008DF803006946154800F06AF84FF47C40D9
:10024000ADF8000003208DF8020010208DF80300A7
:1002500069460F4800F05CF84FF48070ADF800007C
:1002600069460B4800F054F84FF48070ADF8000078
:1002700003208DF8020010208DF803006946034822
:1002800000F046F808BD00000008014000100140E1
:10029000000C014000B585B0012144F2040000F0DB
:1002A000CBF818208DF803004FF40070ADF8000073
:1002B00003208DF802006946134800F029F8182041
:1002C0008DF803004FF48060ADF8000069460E48D9
:1002D00000F01EF84FF4165001900020ADF8080011
:1002E000ADF80A00ADF80C00ADF810000C20ADF828
:1002F0000E0001A9054800F00BFB0121034800F0A6
:10030000EDFA05B000BD00000008014000380140D2
:100310002DE9F0410246002500260020002300249C
:10032000002791F803C00CF00F0591F803C01CF0F2
:10033000100F03D091F802C04CEA050591F800C0F7
:10034000BCF1000F31D0146800202BE04FF0010CFD
:100350000CFA00F3B1F800C00CEA03069E4220D16B
:1003600083004FF00F0C0CFA03F7BC4305FA03FCB3
:100370004CEA040491F803C0BCF1280F06D14FF0F9
:10038000010C0CFA00FCC2F814C00AE091F803C09A
:10039000BCF1480F05D14FF0010C0CFA00FCC2F87B
:1003A00010C0401C0828D1D31460B1F800C0BCF1C3
:1003B000FF0F34DD546800202EE000F1080C4FF0F0
:1003C000010808FA0CF3B1F800C00CEA03069E42DB
:1003D00021D183004FF00F0C0CFA03F7BC4305FA50
:1003E00003FC4CEA040491F803C0BCF1280F05D1CA
:1003F00000F1080C08FA0CF8C2F8148091F803C058
:10040000BCF1480F07D100F1080C4FF0010808FAC1
:100410000CF8C2F81080401C0828CED35460BDE808
:10042000F081416170470161704700BFFEE700BF86
:10043000FEE770477047000029B1064A92690243FF
:10044000044B9A6104E0034A92698243014B9A612A
:10045000704700000010024030B500210022002447
:1004600000232D4D6D6805F00C0121B1042905D044
:10047000082923D105E0294D056022E0274D0560BC
:100480001FE0254D6D6805F47012234D6D6805F46D
:100490008034022505EB92421CB9214D554305607D
:1004A0000BE01D4D6D6815F4003F03D01C4D554306
:1004B000056002E0194D5543056002E0174D0560E7
:1004C00000BF00BF144D6D6805F0F0010909154D1E
:1004D0006B5C0568DD4045600F4D6D6805F4E061BB
:1004E000090A104D6B5C4568DD4085600A4D6D68FA
:1004F00005F46051C90A0B4D6B5C4568DD40C56071
:10050000054D6D6805F44041890B074D6B5CC5686E
:10051000B5FBF3F5056130BD0010024000127A0012
:1005200000093D00000000201000002000B587B049
:1005300001210803FFF780FF01211C20FFF77CFF4A
:100540001020ADF8040048208DF8070001A93448B8
:10055000FFF7DEFE1020ADF8040003208DF8060042
:1005600010208DF8070001A92E48FFF7D1FE2D4875
:100570000C30006820F480302A490C3108600220D9
:10058000ADF8040003208DF8060010208DF8070058
:1005900001A92548FFF7BCFE23480C30006840F055
:1005A000020021490C3108604020ADF804001C20F5
:1005B0008DF8070001A91B48FFF7AAFEE020ADF85F
:1005C000040018208DF8070003208DF8060001A90B
:1005D0001448FFF79DFE0020ADF808004FF482702C
:1005E000ADF80A000020ADF80C00ADF80E00ADF833
:1005F00010004FF40070ADF812001820ADF8140090
:100600000020ADF816000720ADF8180002A9074831
:1006100000F044F80121054800F026F807B000BDBD
:100620000010014000080140000C01400030014072
:1006300010B5044600BF02210A4800F021F8002846
:10064000F9D02146074800F027F800BF01210548EE
:1006500000F016F80028F9D0024800F01AF8C0B2ED
:1006600010BD00000030014021B1028842F040027C
:10067000028004E002884FF6BF731A400280704780
:100680000246002013890B4201D0012000E0002027
:1006900070470146888970478181704710B50022F4
:1006A000028802F441520B884C8823438C882343F0
:1006B000CC8823430C8923434C8923438C892343CF
:1006C000CC8923431A430280838B4FF2FF7423406B
:1006D00083830B8A038210BD704710B500F002F8C7
:1006E00010BD00000CB50020019000903248006859
:1006F00040F480303049086000BF2F48006800F4A3
:10070000003000900198401C0190009818B90198A1
:10071000B0F5A06FF1D12848006810F4003F02D076
:100720000120009001E0002000900098012842D1B3
:100730002248006840F01000204908600846006820
:1007400020F0030008600846006840F002000860DE
:10075000194840681849486008464068486008469B
:10076000406840F4806048600846406820F47C108F
:1007700048600846406840F4E81048600846006851
:1007800040F08070086000BF0B48006810F0007FE8
:10079000FAD00948406820F003000749486008463D
:1007A000406840F00200486000BF0348406800F025
:1007B0000C000828F9D10CBD0010024000200240B6
:1007C000042808D14FF0E021096941F004014FF0FD
:1007D000E022116107E04FF0E021096921F00401F6
:1007E0004FF0E02211617047012808D14FF0E0215D
:1007F000096941F001014FF0E02211610EE0811C16
:1008000008D14FF0E021096921F001014FF0E02209
:10081000116103E000214FF0E0229161704710B5B3
:100820000146002200230020CB10022B03D14FF001
:10083000E024226902E04FF0E024E26901248C40C8
:10084000144201D0012000E0002010BD704740B1EB
:100850004FF0E021096941F002014FF0E0221161FF
:1008600007E04FF0E021096921F002014FF0E0229A
:10087000116170474FF0E0214861704710B513488F
:10088000006840F0010011490860084640681049BE
:1008900008400E494860084600680E4908400B4968
:1008A00008600846006820F4802008600846406818
:1008B00020F4FE0048604FF41F008860FFF70DFF32
:1008C0004FF000600449086010BD000000100240B5
:1008D0000000FFF8FFFFF6FE08ED00E021B182897D
:1008E00042F40052828104E082894DF6FF731A407F
:1008F0008281704702460020B1F5007F00D100BF21
:1009000013880B4201D0012000E000207047000056
:100910002DE9F04786B005460E460024A24600BFEA
:10092000A1460027B08900B100BF2F462C8A4CF6A3
:10093000FF700440F08804432C82AC894EF6F3101B
:100940000440B08831890843718908430443AC816D
:10095000AC8A4FF6FF400440B0890443AC8201A842
:10096000FFF77AFD1F48874202D1DDF810A001E0B1
:10097000DDF80CA0A88910F4004F08D00AEBCA00DB
:1009800000EB0A1031684900B0FBF1F807E00AEB10
:10099000CA0000EB0A1031688900B0FBF1F864204E
:1009A000B8FBF0F004012009642101FB1089A8893B
:1009B00010F4004F08D0322000EBC900B0FBF1F07A
:1009C00000F00700044308E0322000EB0910642126
:1009D000B0FBF1F000F00F0004432C8106B0BDE83D
:1009E000F087000000380140C1F3080282807047A0
:1009F00000BFFEE70FB4054B10B503A9044A0298E7
:100A000000F02CF810BC5DF814FB0000BD140008C9
:100A1000900000200FB4084B10B504A902AA039857
:100A200000F01CF8044602A9002000F046FA204617
:100A300010BC5DF814FB0000BB0E000802E008C803
:100A4000121F08C1002AFAD170477047002001E048
:100A500001C1121F002AFBD1704700002DE9FF4F92
:100A60008DB00F4605460026DEE1252874D100240E
:100A70006D1CF149A246A14601222B78203B02FAC7
:100A800003F0084202D004436D1CF6E728782A28B8
:100A900010D06FF02F022878A0F13001092915D865
:100AA0000AEB8A0102EB410144F0020400EB010A67
:100AB0006D1CF0E757F804ABBAF1000F03DA44F409
:100AC0000054CAF1000A44F002046D1C28782E2854
:100AD00017D115F8010F44F004042A280ED06FF046
:100AE0002F022878A0F1300109290AD809EB8901E1
:100AF00002EB410100EB01096D1CF2E757F8049B82
:100B00006D1C28786C280FD006DC4C2817D068287C
:100B10000DD06A2814D104E0742810D07A280FD19F
:100B20000DE044F400140AE044F4801401E044F4BD
:100B300040146978814202D16D1C04F580146D1C4B
:100B40002A786E2A20D00DDC632A33D005DC002AF7
:100B50006FD0582A12D1A2E011E0642A6AD0692A23
:100B60000CD167E0732A2FD004DC6F2A6FD0702A73
:100B700004D199E0752A6BD0782A6AD01046DDE955
:100B80000F129047761C4EE1C4F30250022806D0A3
:100B900003280AD0042801CF0AD0066043E101CF20
:100BA0004FEAE671C0E900613DE101CF06803AE11C
:100BB000067038E117F8040B8DF8000000208DF85E
:100BC0000100EB46012003E057F804BB4FF0FF3073
:100BD00061074FF0000102D40DE008F101018846E1
:100BE00049450FDA8045F8DB1BF808100029F4D1DD
:100BF00008E008F1010188468142FADB1BF8081081
:100C00000029F6D1DDE90F23AAEB08008146214631
:100C100000F03BF9304400EB080604E0DDE90F1278
:100C20001BF8010B9047B8F10108F7D2214648465E
:100C3000F4E0FDE00A21C4F302534FF0000B0891E9
:100C4000022B07D001CFC117032B09D00AE034E0F3
:100C500023E024E0FF1D27F00707F7E8020105E085
:100C600000B2C117042B01D140B2C117002907DA25
:100C70004FF0000CD0EB0C006CEB01012D2302E0D7
:100C8000230504D52B238DF82430012303E0E3074B
:100C900001D02023F7E7984650E00A210EE010200B
:100CA0004FF0000B08900CE010214FF0000B44F0C7
:100CB00004044FF00809089103E008214FF0000BED
:100CC0000891C4F30253022B04D001CF0021032B5F
:100CD00006D006E0FF1D27F00707F7E8020103E052
:100CE00080B2042B00D1C0B24FF00008230725D5F5
:100CF000702A2AD0DDF820C08CF0100C5CEA0B0CB6
:100D000009D150EA010306D030238DF824308DF844
:100D1000252002239846DDF820C08CF0080C5CEA00
:100D20000B0C0BD150EA010301D1630706D5302328
:100D30008DF824304FF00108A9F10109582A09D093
:100D40003EA20B9208AA0A9211E040238DF82430AB
:100D50000123DFE73EA2F4E75B46089AFFF7E2F9DA
:100D60000B9B9B5C0A9AA2F101020A92137050EA53
:100D70000102F1D10A98ADEB000000F1200B6007F1
:100D800002D524F4803401E04FF00109D94502DD99
:100D9000A9EB0B0000E0002000EB0B0141440890A0
:100DA000AAEB010AE00306D4DDE90F2321465046F1
:100DB00000F06BF80644002008E009A911F80900CA
:100DC000DDE90F129047761C09F10100814640458C
:100DD000F3DBE0030CD5DDE90F232146504600F09C
:100DE00054F8064404E0DDE90F1230209047761CE9
:100DF0000899481E08900029F5DC08E00A980A992D
:100E00000078491C0A91DDE90F129047761CBBF16E
:100E10000001ABF1010BF1DC21465046DDE90F2367
:100E200000F020F806446D1C287800287FF41DAEE1
:100E300011B03046BDE8F08F09280100303132335F
:100E40003435363738396162636465660000000006
:100E500030313233343536373839414243444546F0
:100E6000000000002DE9F041044600251E4617460B
:100E7000880405D406E039462020B04705F1010575
:100E8000641EF8D52846BDE8F0812DE9F0410446FE
:100E900000251E469046C80301D5302700E02027D4
:100EA000880405D506E041463846B04705F10105FE
:100EB000641EF8D52846BDE8F0810A68531C0B6013
:100EC0001070704730B504460B460021012A03D14B
:100ED0001131A3F108000144022A03D1891DA3F1B5
:100EE0000800014406E06078257840EA05200144C6
:100EF000A41C9B1E012BF6D813B1207801EB002116
:100F000002E088B200EB1141080CFAD14FF6FF75F0
:100F100081EA050030BD000000B585B06846FFF7E6
:100F20009BFA6FF00400FFF74BFC0020FFF78FFCEB
:100F300007490198B0FBF1F0064908704FF4FA51E7
:100F40000198B0FBF1F00449088005B000BD000035
:100F500000127A00880000208A00002030B5044684
:100F60001148008800FB04F5B5F1807F01D36FF0D4
:100F70007F452846FFF77EFC0020FFF735FC012067
:100F8000FFF732FC00BF1020FFF749FC074908704B
:100F9000084600780128F6D1C01EFFF725FC002086
:100FA000FFF722FC30BD00008A0000208C000020EA
:100FB00010B504465A48006840F0020058490860DD
:100FC0000A20FFF7CBFF5648006820F00200544982
:100FD00008603220FFF7C2FF5148006840F002006D
:100FE0004F4908600A20FFF7B9FF4E48006840F0FB
:100FF00010004C490860FF220021104600F0D8F98B
:101000000020494908800021082000F0A5F90021AE
:10101000092000F0A1F900210C2000F09DF9002129
:101020000D2000F099F9FE210A2000F095F9192110
:101030000B2000F091F9FF21042000F08DF9192117
:10104000052000F089F9FF21062000F085F91F2115
:10105000072000F081F9B021382000F07DF93F2110
:10106000282000F079F93021292000F075F9F921C4
:10107000302000F071F9F721312000F06DF90D21D9
:10108000C02000F069F90021C12000F065F9332289
:10109000C221802000F08CF91221C62000F05CF9FA
:1010A0000C21C72000F058F91221C42000F054F997
:1010B000DC21CA2000F050F90521CB2000F04CF9CA
:1010C0002178E42000F048F96178E52000F044F947
:1010D000A178E22000F040F9E178E32000F03CF94B
:1010E0002179E02000F038F96179E12000F034F94D
:1010F0004FF48071002000F0ACF84FF480711020A4
:1011000000F0A7F81F2000F00DF9C0221B2180205D
:1011100000F04EF904221F21802000F049F910BD93
:101120000C0C01400C080140160000202DE9F04194
:1011300005460F46392000F0A3F810B90020BDE89D
:10114000F08129480178002000F006F9264800883F
:101150000112012000F000F900213A2000F0BCF853
:101160002149088000213A2000F0B6F81E4909887C
:1011700041EA00201C49088000213A2000F0ACF828
:10118000044600213A2000F0A7F844EA0024201F7A
:1011900084B200213A2000F09FF8064600213A2050
:1011A00000F09AF846EA0026681EA04200DA84B2EF
:1011B00016F0800F01D1002403E03946204600F0EC
:1011C00069F8094801780C2000F0C6F80648008844
:1011D00001120D2000F0C0F840221E21802000F0F6
:1011E000E7F82046ABE700001600002070B5044683
:1011F0000D46FF21022000F0AFF81921032000F076
:10120000ABF8FF202044C1B2062000F0A5F841F65B
:10121000FF102044C0F30721072000F09DF80022B2
:1012200011467A2000F0C4F82946204600F0A0F8C4
:1012300008221F21802000F0BBF81C2000F020F8BD
:1012400010F0020F04D008221F21A02000F0B0F8F7
:1012500070BD70B505460C462946D42000F07CF8D8
:10126000E1B2D62000F078F82112D72000F074F80F
:1012700000BFEA2000F004F810F0010FF9D170BDB2
:1012800010B50446204600F04DF82146002000F03D
:1012900023F810BD70B505460C460E48006820F0D6
:1012A00010000C4908603A20FFF7C2F904E0002062
:1012B000FFF7BEF904F8010B2800A5F101018DB27A
:1012C000F5D120700348006840F010000149086023
:1012D00070BD00000C08014070B505460C460026A4
:1012E0000F48006820F010000D49086004F01F004E
:1012F00040EA05063046FFF79BF9FF20FFF798F913
:10130000064614F0800F03D0FF20FFF791F9064640
:101310000348006840F0100001490860304670BD85
:101320000C08014010B5044604F060000949097832
:1013300088420ED003221F21A02000F039F8C4F308
:1013400041121F21802000F033F804F060000149B1
:10135000087010BD1400002070B504460D462046EC
:10136000FFF7E0FF2A462146402000F021F870BD3B
:1013700070B505460C460D48006820F010000B497A
:1013800008607A20FFF754F903E014F8010BFFF727
:101390004FF92800A5F101018DB2F6D1034800688C
:1013A00040F010000149086070BD00000C080140C9
:1013B0002DE9F04104460D46164600270C4800680A
:1013C00020F010000A49086005F01F0040EA0407F9
:1013D0003846FFF72DF937463846FFF729F9044814
:1013E000006840F0100002490860BDE8F08100008C
:1013F0000C08014010B57220FFF742FF10BD00003D
:1014000010B502460B460021292B01D2002010BD49
:10141000107B082802D1507B062801D00020F6E777
:101420000AE001F12600105C054C645CA04201D08A
:101430000020ECE7481CC1B20429F2DB0120E6E7FA
:101440002B00002010B502460B4600212A2B01D2AA
:10145000002010BD107B082801D1507B08B100206E
:10146000F7E7907B452801D00020F2E70AE001F180
:101470001E00105C054C645CA04201D00020E8E72F
:10148000481CC1B20429F2DB0120E2E72B00002056
:1014900030B504460020207660764020207500207C
:1014A00060754020A0750022142104F10E00FFF7A2
:1014B00009FD0546280A2076657630BD70B50446DC
:1014C0000D46E1B20548FFF78FFA00BF40210348FF
:1014D000FFF710FA0028F9D0204670BD003801400F
:1014E00030B5034600200A4C227004E00C5C094D24
:1014F0002C54441CE0B20428F8DB002004E01C5CFF
:10150000054D2C54441CE0B20628F8DB30BD000029
:10151000180000202B0000202500002044F6206049
:1015200000BF0100A0F10100FBD1704710B5012000
:1015300000F098F80520FFF711FD10BD00B5074831
:10154000006840F4006005490860FFF7E7FF0348C2
:10155000006820F400600149086000BD0C0C0140E7
:1015600070B506460C46012E0BD1651EE91705EB3A
:1015700011710911A5EB01118031C8B200F072F8A8
:101580000AE0651EE91705EB11710911A5EB0111C0
:10159000C031C8B200F066F870BD000010B52C482C
:1015A0000068C0F309002A4908606420FFF7D6FCF0
:1015B000032000F057F80120FFF7D0FCFFF7BEFF33
:1015C0000120FFF7CBFCFFF7B9FF022000F04AF83B
:1015D0000120FFF7C3FC332000F044F8322000F074
:1015E00041F8282000F03EF80C2000F03BF80020E5
:1015F0001849087024E01848007800F033F80020FB
:10160000164908700EE01649124A127801EBC20121
:10161000124A1278885C00F039FB10480078401CB0
:101620000E4908700D4800780728ECDD0A4800785C
:1016300008300949087007480078401C05490870BF
:10164000044800780728D6DDFFF770FF10BD0000C2
:101650000C0C014085000020440000208600002082
:101660004500002000B5034610480068C0F309009B
:101670000E4908600846006803F0F00140EA0120C6
:101680000A490860FFF75AFFFFF748FF074800685C
:10169000C0F30900054908600846006840EA0330C5
:1016A0000860FFF74BFFFFF739FF00BD0C0C01404E
:1016B00010B5044603E014F8010B00F0E7FA2078B7
:1016C0000028F8D110BD00001CB50026FFF724FC4F
:1016D000FEF78EFDB448C06820F48070B249C8603F
:1016E000FEF7D8FDB1A0FFF785F9B7A0FFF782F9A3
:1016F000FFF754FFBBA0FFF7DBFF6420FFF72EFCD2
:1017000001210220FFF72CFFBBA0FFF7D1FF4FF410
:101710007A70FFF723FCBD48C078BC498978CDE9D1
:101720000010BA4843780278B9A1BD48FFF772F9B2
:1017300001210846FFF714FFB948FFF7B9FF01215F
:101740000220FFF70DFFB7A0FFF7B2FFFEF7EEFE96
:10175000B948FFF72DFCFFF74DFE07463946B7A005
:10176000FFF748F940F276411420FFF772FD14208C
:10177000FFF7F4FBB7480278A449AF48FFF7B0FE83
:1017800011E1B549FA20FFF7D1FC054605B90AE198
:101790002946B148FFF734FE18B1AF4800F0B8F958
:1017A00001E1AEA0FFF726F92946AB48FFF74AFE54
:1017B00000B9F8E0ADA0FFF71DF9A748C07D0128EA
:1017C0000CD1A54890F82200082807D1ABA0FFF75C
:1017D00011F92946A04800F0CDF9E4E09E48C07D0B
:1017E000112875D19C4890F827000838C6B29A4C49
:1017F0002A340096A37862782178A6A0FFF7FAF839
:1018000020784C287ED16078302806D0312833D01B
:10181000322861D0332876D190E0A078302802D0E9
:10182000312826D112E0A34803880422A2A18A48C5
:1018300000F0EAF90221A248FEF7F3FD0C21022094
:10184000FFF78EFE9FA0FFF733FF13E09948038850
:1018500004229DA1804800F0D7F902219848FEF7A4
:10186000E2FD0C210220FFF77BFE99A0FFF720FF8D
:1018700000E000BF00BF91E0A078302802D03128FE
:1018800027D112E08B480388042292A1724800F00D
:10189000BBF901218A48FEF7C4FD09210220FFF7A8
:1018A0005FFE88A0FFF704FF14E08248038804224B
:1018B0008AA1694800F0A8F901218148FEF7B3FD2B
:1018C00009210220FFF74CFE86A0FFF7F1FE01E0A0
:1018D00068E000BF00BF61E0A078302802D0312866
:1018E00029D115E07348038804227FA15A4800F0EB
:1018F0008BF908212C48FEF794FD06210220FFF702
:101900002FFE01E04CE048E06EA0FFF7D1FE13E0AF
:1019100068480388042276A14F4800F075F9082131
:101920002148FEF780FD06210220FFF719FE72A074
:10193000FFF7BEFE00E000BF00BF2FE0A078302818
:1019400002D0312826D112E05A48038804226BA124
:10195000414800F059F904211348FEF762FD0321C4
:101960000220FFF7FDFD57A0FFF7A2FE13E051484C
:101970000388042263A1384800F046F904210A488C
:10198000FEF751FD03210220FFF7EAFD5FA0FFF7FC
:101990008FFE00E000BF00BF00E000BF00BF00BF3F
:1019A00000BF00BF00BFECE600100140202D20204A
:1019B000204578706B697473204558532D3033205F
:1019C00020202D200A0D0000202D2053544D3332AD
:1019D00046313078204554482044454D4F202D2035
:1019E0000A0D00004558532D30332053544D3332E7
:1019F000463130782000000045746865726E657469
:101A00002044656D6F20202000000000360000207B
:101A100049503A25752E25752E25752E2575000001
:101A20008F01002020202020202020202020202086
:101A300020202020000000003000002020436869A2
:101A400070205265766973696F6E203A2025305890
:101A50000A0D00003C00002094000020457468201E
:101A6000547970653A204152500A0D00457468203F
:101A7000547970653A2049500A0D000050696E672C
:101A8000212053656E64696E6720506F6E67210A6E
:101A90000D000000446174613A2563256325632CC1
:101AA000205061796C6F61644C656E3A25640A0D53
:101AB000000000003A000020424C303000000000DE
:101AC0000008014020200000424C3031000000009E
:101AD0004C300000424C313000000000424C3131AB
:101AE000000000004C310000424C32300000000089
:101AF000424C3231000000004C320000424C333086
:101B000000000000424C3331000000004C33000064
:101B100070B505460024284600F04CF800202875D2
:101B2000022068750BE004F11600295C0A30295484
:101B30000E48015D04F116002954601CC4B2062C45
:101B4000F1DB00240BE004F11C00295C0A3029546D
:101B50000748015D04F11C002954601CC4B2042C28
:101B6000F1DB29462A20FFF741FB70BD250000204C
:101B70002B00002070B504460D46204600F01AF8F0
:101B8000204600F029F8002084F8220094F8240070
:101B9000F72804DD94F82500401C84F8250094F80B
:101BA0002400083084F82400A8B22146FFF71EFB69
:101BB00070BD00000146002008E0821D8A5C0A54C6
:101BC000044A135C821D8B54421CD0B20628F4DBFD
:101BD000704700002500002030B5054600240BE0CA
:101BE00004F11A00295C001D29540648015D04F126
:101BF0001A002954601CC4B2042CF1DB2846FFF7FC
:101C000047FC30BD2B0000202DE9F04704468946F3
:101C100015461F4600262046FFF7CCFFDC2D00DDD1
:101C2000DC250020207405F11C0060742046FFF7BD
:101C3000D3FF380A04F8240F67700020A07005F164
:101C40000800E070002020716071A4F1240406E017
:101C500019F8061006F12A002154701CC6B2AE42D3
:101C6000F6DB05F11001012204F11A00FFF72AF951
:101C700080464FEA182084F8280084F8298005F16E
:101C80002A002146FFF7B2FABDE8F08700B5034607
:101C9000E72B20D00CDCDC2B1BD004DCC72B10D0B6
:101CA000D62B22D111E0DD2B0DD0DE2B1DD10EE085
:101CB000F62B14D0FC2B16D0FD2B0ED0FE2B14D1FE
:101CC0000FE0002312E0012310E002230EE00323C3
:101CD0000CE004230AE0002308E0012306E00223CD
:101CE00004E0032302E0042300E000BF00BF144827
:101CF0000068C0F30900124908600846006803F054
:101D0000F0014FF4806242EA012108430C49086067
:101D1000FFF714FCFFF702FC09480068C0F3090054
:101D20000749086008460068091541EA033108437D
:101D300003490860FFF702FCFFF7F0FB00BD00005D
:101D40000C0C0140641D00080000002094000000FD
:101D50003C0A0008F81D0008940000201C05000043
:101D60004C0A000800000000010203040102030401
:101D700006070809020406080000000050000000E1
:101D800000000000000000000A0000000000000049
:101D900000000000545558100024C0A801645F766C
:101DA000500000000000000040000E1010110E0452
:101DB0000000000C0404040E000A000E1111110EA4
:101DC00000000F100E011E04000A00111111110E67
:101DD0000002060E1E0E06020000040404040404A1
:101DE00000001008040201000000000000000000D4
:081DF0000000000000000000EB
:04000005080000ED02
:00000001FF
